:060000000A128A110C280F
:10000800FE00030EF0000A08F1000A128A115929AD
:100018000A128A11482922200A128A1135200A1246
:100028008A113F200A128A115F200A128A116B2056
:100038000A128A1172200A128A11762885018316FB
:1000480085010317880189018312031386011F3074
:10005800831686008117831287010730831687006D
:1000680008008B170B138B160B128B110B118B10AF
:100078000B100117080005308112011681110111BA
:10008800811001148312810090161016901110151A
:10009800901083160C10831210108E018F01831696
:1000A8008C108312121392121212921512119214BA
:1000B80012149101080080309F0083169F009F1240
:1000C8001F1283121F119F111F129F1208008316FF
:1000D8000C110D10831297019D0108000317870169
:1000E800880108007030831603138F000800F4009D
:1000F800013E840000117408013E8400001A922811
:100108007408013E840000167408083E840007083D
:1001180080007408083E8400073080050708F30053
:100128000730F3057408083E840073080002F200E3
:10013800F208031DB42874080A3E8400800A740873
:100148000A3E840000081E3A031D080074080A3E8F
:10015800840080017408083E840073088000080049
:10016800F2017408013E840000120800F400013E08
:10017800840080107408013E84008019D128740816
:10018800013E840080157408063E8400060880003D
:100198007408063E84001F3080050608F3001F30EF
:1001A800F3057408063E840073080002F200F208A2
:1001B800031DF32874080A3E8400800A74080A3E66
:1001C800840000081E3A031D080074080A3E8400D3
:1001D80080017408063E8400730880000800F2015C
:1001E8007408013E840080110800F200013E84007A
:1001F80000107208023E8400800A7208023E8400E1
:100208000008143A031D08007208023E84008001A9
:100218007208013E840080147208013E84000015B3
:100228007208033E8400800A7208033E84000008B6
:100238000A3A031D08007208033E84008001080082
:100248000A128A110F200A128A118312211C3229DC
:1002580020300A128A11F9200A128A11A11C3A299F
:1002680020300A128A11BA200A128A11211D422945
:1002780020300A128A117B200A128A11261C46296C
:100288000515292905112929A001A101A201A30108
:10029800A401A501A601A701A801A901AA01AB0112
:1002A800AC0183010A128A1124298B1A0B1D6229B9
:1002B8000B118312031305302114810071088A0081
:0A02C800700E8300FE0E7E0E09008A
:04400E0004EBFFFFC1
:00000001FF
